{
  "abi": [
    {
      "inputs": [
        {
          "internalType": "bytes32[]",
          "name": "proposalNames",
          "type": "bytes32[]"
        }
      ],
      "stateMutability": "nonpayable",
      "type": "constructor"
    },
    {
      "inputs": [],
      "name": "chairperson",
      "outputs": [
        {
          "internalType": "address",
          "name": "",
          "type": "address"
        }
      ],
      "stateMutability": "view",
      "type": "function"
    },
    {
      "inputs": [
        {
          "internalType": "address",
          "name": "to",
          "type": "address"
        }
      ],
      "name": "delegate",
      "outputs": [],
      "stateMutability": "nonpayable",
      "type": "function"
    },
    {
      "inputs": [
        {
          "internalType": "address",
          "name": "voter",
          "type": "address"
        }
      ],
      "name": "giveRightToVote",
      "outputs": [],
      "stateMutability": "nonpayable",
      "type": "function"
    },
    {
      "inputs": [
        {
          "internalType": "uint256",
          "name": "",
          "type": "uint256"
        }
      ],
      "name": "proposals",
      "outputs": [
        {
          "internalType": "bytes32",
          "name": "name",
          "type": "bytes32"
        },
        {
          "internalType": "uint256",
          "name": "voteCount",
          "type": "uint256"
        }
      ],
      "stateMutability": "view",
      "type": "function"
    },
    {
      "inputs": [],
      "name": "startTime",
      "outputs": [
        {
          "internalType": "uint256",
          "name": "",
          "type": "uint256"
        }
      ],
      "stateMutability": "view",
      "type": "function"
    },
    {
      "inputs": [
        {
          "internalType": "uint256",
          "name": "proposal",
          "type": "uint256"
        }
      ],
      "name": "vote",
      "outputs": [],
      "stateMutability": "nonpayable",
      "type": "function"
    },
    {
      "inputs": [
        {
          "internalType": "address",
          "name": "",
          "type": "address"
        }
      ],
      "name": "voters",
      "outputs": [
        {
          "internalType": "uint256",
          "name": "weight",
          "type": "uint256"
        },
        {
          "internalType": "bool",
          "name": "voted",
          "type": "bool"
        },
        {
          "internalType": "address",
          "name": "delegate",
          "type": "address"
        },
        {
          "internalType": "uint256",
          "name": "vote",
          "type": "uint256"
        }
      ],
      "stateMutability": "view",
      "type": "function"
    },
    {
      "inputs": [],
      "name": "winnerName",
      "outputs": [
        {
          "internalType": "bytes32",
          "name": "winnerName_",
          "type": "bytes32"
        }
      ],
      "stateMutability": "view",
      "type": "function"
    },
    {
      "inputs": [],
      "name": "winningProposal",
      "outputs": [
        {
          "internalType": "uint256",
          "name": "winningProposal_",
          "type": "uint256"
        }
      ],
      "stateMutability": "view",
      "type": "function"
    }
  ],
  "bytecode": {
    "object": "0x608060405234801561001057600080fd5b5060405161099e38038061099e83398101604081905261002f916100e3565b600080546001600160a01b0319163390811782558152600260205260408120600190555b81518110156100c6576003604051806040016040528084848151811061007b5761007b6101a0565b602090810291909101810151825260009181018290528354600181810186559483529181902083516002909302019182559190910151910155806100be816101b6565b915050610053565b50506101df565b634e487b7160e01b600052604160045260246000fd5b600060208083850312156100f657600080fd5b82516001600160401b038082111561010d57600080fd5b818501915085601f83011261012157600080fd5b815181811115610133576101336100cd565b8060051b604051601f19603f83011681018181108582111715610158576101586100cd565b60405291825284820192508381018501918883111561017657600080fd5b938501935b828510156101945784518452938501939285019261017b565b98975050505050505050565b634e487b7160e01b600052603260045260246000fd5b60006000198214156101d857634e487b7160e01b600052601160045260246000fd5b5060010190565b6107b0806101ee6000396000f3fe608060405234801561001057600080fd5b50600436106100935760003560e01c8063609ff1bd11610066578063609ff1bd1461011857806378e979251461012e5780639e7b8d6114610137578063a3ec138d1461014a578063e2ba53f0146101bb57600080fd5b80630121b93f14610098578063013cf08b146100ad5780632e4176cf146100da5780635c19a95c14610105575b600080fd5b6100ab6100a63660046106e4565b6101c3565b005b6100c06100bb3660046106e4565b6102f0565b604080519283526020830191909152015b60405180910390f35b6000546100ed906001600160a01b031681565b6040516001600160a01b0390911681526020016100d1565b6100ab6101133660046106fd565b61031e565b61012061051d565b6040519081526020016100d1565b61012060015481565b6100ab6101453660046106fd565b61059a565b61018c6101583660046106fd565b600260208190526000918252604090912080546001820154919092015460ff82169161010090046001600160a01b03169084565b6040516100d1949392919093845291151560208401526001600160a01b03166040830152606082015260800190565b6101206106b1565b61012c600154426101d49190610743565b106102005760405162461bcd60e51b815260206004820152600060248201526044015b60405180910390fd5b33600090815260026020526040902080546102545760405162461bcd60e51b8152602060048201526014602482015273486173206e6f20726967687420746f20766f746560601b60448201526064016101f7565b600181015460ff161561029a5760405162461bcd60e51b815260206004820152600e60248201526d20b63932b0b23c903b37ba32b21760911b60448201526064016101f7565b6001818101805460ff1916909117905560028101829055805460038054849081106102c7576102c761075a565b906000526020600020906002020160010160008282546102e79190610770565b90915550505050565b6003818154811061030057600080fd5b60009182526020909120600290910201805460019091015490915082565b336000908152600260205260409020600181015460ff16156103775760405162461bcd60e51b81526020600482015260126024820152712cb7ba9030b63932b0b23c903b37ba32b21760711b60448201526064016101f7565b6001600160a01b0382163314156103d05760405162461bcd60e51b815260206004820152601e60248201527f53656c662d64656c65676174696f6e20697320646973616c6c6f7765642e000060448201526064016101f7565b6001600160a01b0382811660009081526002602052604090206001015461010090041615610473576001600160a01b039182166000908152600260205260409020600101546101009004909116903382141561046e5760405162461bcd60e51b815260206004820152601960248201527f466f756e64206c6f6f7020696e2064656c65676174696f6e2e0000000000000060448201526064016101f7565b6103d0565b600181810180546001600160a81b0319166101006001600160a01b03861690810291909117831790915560009081526002602052604090209081015460ff16156104fe57816000015460038260020154815481106104d3576104d361075a565b906000526020600020906002020160010160008282546104f39190610770565b909155506105189050565b815481548290600090610512908490610770565b90915550505b505050565b600080805b6003548110156105955781600382815481106105405761054061075a565b9060005260206000209060020201600101541115610583576003818154811061056b5761056b61075a565b90600052602060002090600202016001015491508092505b8061058d81610788565b915050610522565b505090565b6000546001600160a01b031633146106055760405162461bcd60e51b815260206004820152602860248201527f4f6e6c79206368616972706572736f6e2063616e2067697665207269676874206044820152673a37903b37ba329760c11b60648201526084016101f7565b6001600160a01b03811660009081526002602052604090206001015460ff16156106715760405162461bcd60e51b815260206004820152601860248201527f54686520766f74657220616c726561647920766f7465642e000000000000000060448201526064016101f7565b6001600160a01b0381166000908152600260205260409020541561069457600080fd5b6001600160a01b0316600090815260026020526040902060019055565b600060036106bd61051d565b815481106106cd576106cd61075a565b906000526020600020906002020160000154905090565b6000602082840312156106f657600080fd5b5035919050565b60006020828403121561070f57600080fd5b81356001600160a01b038116811461072657600080fd5b9392505050565b634e487b7160e01b600052601160045260246000fd5b6000828210156107555761075561072d565b500390565b634e487b7160e01b600052603260045260246000fd5b600082198211156107835761078361072d565b500190565b600060001982141561079c5761079c61072d565b506001019056fea164736f6c634300080c000a",
    "linkReferences": {}
  }
}